:100000000C9446000C9465000C9465000C946500FB
:100010000C9465000C9465000C9465000C946500CC
:100020000C9465000C9465000C9465000C946500BC
:100030000C9465000C9465000C9465000C946500AC
:100040000C9465000C9465000C9465000C9465009C
:100050000C9465000C9465000C9465000C9465008C
:100060000C9465000C9465000C9465000C9465007C
:100070000C9465000C9465000C9465000C9465006C
:100080000C9465000C9465000C94650011241FBE4F
:10009000CFEFD0E4DEBFCDBF11E0A0E0B1E0E0E003
:1000A000F2E000E00BBF02C007900D92A231B10751
:1000B000D9F721E0A2E1B1E001C01D92A631B2075B
:1000C000E1F70E94D6000C94FE000C940000CF9340
:1000D000DF9300D01F92CDB7DEB789837B836A831D
:1000E00089818A3031F48A819B81BC018DE00E9434
:1000F000670080EC90E0FC018081882F90E08072A6
:100100009927892BB1F386EC90E02981FC012083AB
:1001100080E090E00F900F900F90DF91CF910895C5
:10012000CF93DF93CDB7DEB78AE790E02AE730E0E0
:10013000F9012081206EFC0120830000DF91CF9126
:100140000895CF93DF93CDB7DEB788E790E0FC0149
:100150008081918190931301809312018091140109
:100160009091150181309105D1F08130910518F001
:100170000297B9F017C085E290E027E830E0A901C6
:1001800056954795209112013091130161E0241793
:10019000350708F460E0262FFC01208303C000002F
:1001A00001C000000000DF91CF910895CF93DF934D
:1001B000CDB7DEB784E290E02FEFFC0120838AE226
:1001C00090E02FEFFC01208381E290E0FC0110829F
:1001D00085E290E0FC0110828BE290E0FC0110824D
:1001E00082E290E02FEFFC01208310921501109223
:1001F00014010E9490000E94A100FDCFF894FFCF4F
:1002000000000002000000006700000000008700FE
:020210003900B3
:00000001FF
