:100000000C9446000C9465000C9465000C946500FB
:100010000C9465000C9465000C9465000C946500CC
:100020000C9465000C9465000C9465000C946500BC
:100030000C9465000C94B5000C9465000C9465005C
:100040000C9465000C9465000C9465000C9465009C
:100050000C9465000C9465000C9465000C9465008C
:100060000C9465000C9465000C9465000C9465007C
:100070000C9465000C9465000C9465000C9465006C
:100080000C9465000C9465000C94650011241FBE4F
:10009000CFEFD0E4DEBFCDBF11E0A0E0B1E0E8ECEF
:1000A000F4E000E00BBF02C007900D92A231B1074F
:1000B000D9F721E0A2E1B1E001C01D92AB31B20756
:1000C000E1F70E9436020C9462020C940000CF9378
:1000D000DF93CDB7DEB781E890E02BE0FC01208311
:1000E00088E890E02DE730E0FC01318320838FE643
:1000F00090E022E0FC01208384E890E0FC01118282
:1001000010828091000190910101A0910201B091B3
:1001100003018093130190931401A0931501B093F0
:1001200016018FE590E02FE530E0F901208120688D
:10013000FC0120830000DF91CF910895CF93DF93DE
:10014000CDB7DEB781E890E0FC0110820000DF91BE
:10015000CF910895CF93DF93CDB7DEB781E0809341
:1001600012010000DF91CF9108951F920F9200902D
:100170005F000F92112400905B000F922F933F932A
:100180004F935F936F937F938F939F93AF93BF939F
:10019000EF93FF93CF93DF93CDB7DEB78091130139
:1001A00090911401A0911501B09116010197A10938
:1001B000B1098093130190931401A0931501B0939A
:1001C00016018091130190911401A0911501B09135
:1001D0001601892B8A2B8B2B91F40E94AA00809107
:1001E000000190910101A0910201B091030180935F
:1001F000130190931401A0931501B0931601000010
:10020000DF91CF91FF91EF91BF91AF919F918F912E
:100210007F916F915F914F913F912F910F9000923D
:100220005B000F9000925F000F901F901895CF9386
:10023000DF9300D000D0CDB7DEB769837A838B839C
:100240009C8389819A81AB81BC81809300019093CA
:100250000101A0930201B0930301809100019091EC
:100260000101A0910201B0910301809313019093C9
:100270001401A0931501B093160100000F900F9088
:100280000F900F90DF91CF910895CF93DF9300D01F
:100290001F92CDB7DEB789837B836A8389818A30D9
:1002A00031F48A819B81BC018DE00E94450180EC84
:1002B00090E0FC018081882F90E080729927892B43
:1002C000B1F386EC90E02981FC01208380E090E08E
:1002D0000F900F900F90DF91CF910895CF93DF9300
:1002E000CDB7DEB780E290E0FC018081882F90E0FE
:1002F0008170992721E0892B09F020E0822F8093DB
:1003000018018091190190911A018230910509F12B
:100310008330910528F4009771F0019799F067C038
:100320008430910509F447C08430910558F1059750
:1003300009F44FC05CC081E090E090931A01809373
:10034000190155C082E090E090931A018093190141
:100350004EC080911801882339F084E090E090939A
:100360001A018093190143C080911701843019F458
:1003700083E090E002C082E090E090931A018093C5
:10038000190135C080911801882339F084E090E08C
:1003900090931A01809319012AC08091170181302E
:1003A00019F482E090E002C083E090E090931A019B
:1003B000809319011CC080911801882319F084E0F2
:1003C00090E002C085E090E090931A0180931901BB
:1003D0000EC080911801882319F081E090E002C0DE
:1003E00085E090E090931A018093190100008091BC
:1003F000190190911A018330910529F184309105FA
:1004000030F48130910549F0029789F02BC0843097
:10041000910529F1059729F125C085E290E021E0B9
:100420002093170120911701FC0120831BC08091AC
:100430001701880F8093170185E290E02091170142
:10044000FC0120830FC080911701869580931701CE
:1004500085E290E020911701FC01208303C0000099
:1004600001C000000000DF91CF910895CF93DF938A
:10047000CDB7DEB784E290E02FEFFC01208381E26C
:1004800090E0FC01108285E290E0FC01108282E2A3
:1004900090E02FEFFC01208310921A0110921901B5
:1004A0006CE271E080E090E00E9417010E9467001A
:1004B0000E946E010000809112018823E1F31092E6
:0804C0001201F6CFF894FFCF02
:1004C80001000000000000020000000045010000DB
:0204D800000022
:00000001FF
